:020000040800F2
:1000000000A00020C92A0008092800080B280008C1
:100010000D2800080F280008112800080000000023
:10002000000000000000000000000000132800088D
:1000300015280008000000001728000819280008EB
:10004000192B0008192B0008192B0008192B000880
:10005000192B0008192B0008192B0008192B000870
:10006000192B0008192B0008192B0008192B000860
:10007000192B0008192B0008192B0008192B000850
:10008000192B0008192B0008192B0008192B000840
:10009000192B0008192B0008192B0008192B000830
:1000A000192B0008192B0008192B0008192B000820
:1000B000192B0008192B0008192B0008192B000810
:1000C000192B0008192B0008192B0008192B000800
:1000D000192B0008192B0008192B0008192B0008F0
:1000E000192B0008192B0008192B0008192B0008E0
:1000F000192B0008192B0008192B0008192B0008D0
:10010000000000000000000000000000192B0008A3
:10011000192B0008192B000825280008192B0008A6
:10012000192B0008192B0008192B0008192B00089F
:10013000192B0008192B0008000000000000000027
:10014000192B0008192B0008192B000800000000CB
:10015000000000000000000000000000000000009F
:100160000000000000000000192B0008192B0008F7
:10017000192B000800000000000000000000000033
:0801800000000000192B00082B
:1001880010B5054C237833B9044B13B10448AFF3C9
:1001980000800123237010BD100000200000000023
:1001A800642B000808B5034B1BB103490348AFF3A0
:1001B800008008BD0000000014000020642B000827
:1001C80081F0004102E000BF83F0004330B54FEA00
:1001D80041044FEA430594EA050F08BF90EA020F6D
:1001E8001FBF54EA000C55EA020C7FEA645C7FEA00
:1001F800655C00F0E2804FEA5454D4EB5555B8BF23
:100208006D420CDD2C4480EA020281EA030382EA93
:10021800000083EA010180EA020281EA0303362D25
:1002280088BF30BD11F0004F4FEA01314FF4801CF8
:100238004CEA113102D0404261EB410113F0004F0A
:100248004FEA03334CEA133302D0524263EB4303C1
:1002580094EA050F00F0A780A4F10104D5F1200E5F
:100268000DDB02FA0EFC22FA05F2801841F10001BA
:1002780003FA0EF2801843FA05F359410EE0A5F18E
:1002880020050EF1200E012A03FA0EFC28BF4CF0BF
:10029800020C43FA05F3C01851EBE37101F0004575
:1002A80007D54FF0000EDCF1000C7EEB00006EEB82
:1002B8000101B1F5801F1BD3B1F5001F0CD349080C
:1002C8005FEA30004FEA3C0C04F101044FEA445263
:1002D80012F5800F80F09A80BCF1004F08BF5FEAEA
:1002E800500C50F1000041EB045141EA050130BDCA
:1002F8005FEA4C0C404141EB010111F4801FA4F16D
:100308000104E9D191F0000F04BF01460020B1FAC1
:1003180081F308BF2033A3F10B03B3F120020CDAF9
:100328000C3208DD02F1140CC2F10C0201FA0CF0D7
:1003380021FA02F10CE002F11402D8BFC2F1200C3C
:1003480001FA02F120FA0CFCDCBF41EA0C019040F2
:10035800E41AA2BF01EB0451294330BD6FEA04043B
:100368001F3C1CDA0C340EDC04F11404C4F1200226
:1003780020FA04F001FA02F340EA030021FA04F338
:1003880045EA030130BDC4F10C04C4F1200220FA8F
:1003980002F001FA04F340EA0300294630BD21FACD
:1003A80004F0294630BD94F0000F83F4801306BF93
:1003B80081F480110134013D4EE77FEA645C18BF87
:1003C8007FEA655C29D094EA050F08BF90EA020F1E
:1003D80005D054EA000C04BF1946104630BD91EA16
:1003E800030F1EBF0021002030BD5FEA545C05D119
:1003F8004000494128BF41F0004130BD14F5800458
:100408003CBF01F5801130BD01F0004545F0FE41CB
:1004180041F470014FF0000030BD7FEA645C1ABF00
:10042800194610467FEA655C1CBF0B46024650EA37
:10043800013406BF52EA033591EA030F41F4002163
:1004480030BD00BF90F0000F04BF0021704730B5E9
:100458004FF4806404F132044FF000054FF00001BE
:1004680050E700BF90F0000F04BF0021704730B57F
:100478004FF4806404F1320410F0004548BF404254
:100488004FF000013EE700BF42004FEAE2014FEAA9
:1004980031014FEA02701FBF12F07F4393F07F4F84
:1004A80081F06051704732F07F4208BF704793F087
:1004B8007F4F04BF41F40021704730B54FF460749A
:1004C80001F0004521F000411CE700BF50EA01029D
:1004D80008BF704730B54FF000050AE050EA010246
:1004E80008BF704730B511F0004502D5404261EBB6
:1004F80041014FF4806404F132045FEA915C3FF4F7
:10050800D8AE4FF003025FEADC0C18BF03325FEA93
:10051800DC0C18BF033202EBDC02C2F1200300FA44
:1005280003FC20FA02F001FA03FE40EA0E0021FA69
:1005380002F11444BDE600BF70B54FF0FF0C4CF457
:10054800E06C1CEA11541DBF1CEA135594EA0C0F09
:1005580095EA0C0F00F0DEF82C4481EA030621EA44
:100568004C5123EA4C5350EA013518BF52EA03357F
:1005780041F4801143F4801338D0A0FB02CE4FF031
:100588000005E1FB02E506F00042E0FB03E54FF061
:100598000006E1FB03569CF0000F18BF4EF0010E59
:1005A800A4F1FF04B6F5007F64F5407404D25FEA55
:1005B8004E0E6D4146EB060642EAC62141EA555108
:1005C8004FEAC52040EA5E504FEACE2EB4F1FD0C4A
:1005D80088BFBCF5E06F1ED8BEF1004F08BF5FEAC8
:1005E800500E50F1000041EB045170BD06F000467A
:1005F80046EA010140EA020081EA0301B4EB5C0427
:10060800C2BFD4EB0C0541EA045170BD41F480111E
:100618004FF0000E013C00F3AB8014F1360FDEBF43
:10062800002001F0004170BDC4F10004203C35DA1F
:100638000C341BDC04F11404C4F1200500FA05F3A2
:1006480020FA04F001FA05F240EA020001F0004243
:1006580021F0004110EBD37021FA04F642EB0601B9
:100668005EEA430E08BF20EAD37070BDC4F10C04E3
:10067800C4F1200500FA04F320FA05F001FA04F2A7
:1006880040EA020001F0004110EBD37041F1000193
:100698005EEA430E08BF20EAD37070BDC4F120059E
:1006A80000FA05F24EEA020E20FA04F301FA05F206
:1006B80043EA020321FA04F001F0004121FA04F2AE
:1006C80020EA020000EBD3705EEA430E08BF20EA7E
:1006D800D37070BD94F0000F0FD101F000464000B8
:1006E80041EB010111F4801F08BF013CF7D041EA3A
:1006F800060195F0000F18BF704703F0004652003E
:1007080043EB030313F4801F08BF013DF7D043EA0E
:100718000603704794EA0C0F0CEA135518BF95EAC4
:100728000C0F0CD050EA410618BF52EA4306D1D14B
:1007380081EA030101F000414FF0000070BD50EA6A
:10074800410606BF1046194652EA430619D094EAF4
:100758000C0F02D150EA013613D195EA0C0F05D1DE
:1007680052EA03361CBF104619460AD181EA030132
:1007780001F0004141F0FE4141F470014FF00000EA
:1007880070BD41F0FE4141F4780170BD70B54FF085
:10079800FF0C4CF4E06C1CEA11541DBF1CEA135505
:1007A80094EA0C0F95EA0C0F00F0A7F8A4EB0504E7
:1007B80081EA030E52EA03354FEA013100F08880DE
:1007C8004FEA03334FF0805545EA131343EA1263A7
:1007D8004FEA022245EA111545EA10654FEA00265C
:1007E8000EF000419D4208BF964244F1FD0404F515
:1007F800407402D25B084FEA3202B61A65EB030571
:100808005B084FEA32024FF480104FF4002CB6EB2D
:10081800020E75EB030E22BFB61A754640EA0C00AD
:100828005B084FEA3202B6EB020E75EB030E22BFED
:10083800B61A754640EA5C005B084FEA3202B6EB2E
:10084800020E75EB030E22BFB61A754640EA9C00ED
:100858005B084FEA3202B6EB020E75EB030E22BFBD
:10086800B61A754640EADC0055EA060E18D04FEA7B
:10087800051545EA16754FEA06164FEAC30343EA1B
:1008880052734FEAC2025FEA1C1CC0D111F4801FE8
:100898000BD141EA00014FF000004FF0004CB6E7E1
:1008A80011F4801F04BF01430020B4F1FD0C88BF80
:1008B800BCF5E06F3FF6AFAEB5EB030C04BFB6EB8B
:1008C800020C5FEA500C50F1000041EB045170BD7E
:1008D8000EF0004E4EEA113114EB5C04C2BFD4EBAB
:1008E8000C0541EA045170BD41F480114FF0000E2F
:1008F800013C90E645EA060E8DE60CEA135594EAAB
:100908000C0F08BF95EA0C0F3FF43BAF94EA0C0FAD
:100918000AD150EA01347FF434AF95EA0C0F7FF422
:1009280025AF104619462CE795EA0C0F06D152EA76
:1009380003353FF4FDAE1046194622E750EA41065A
:1009480018BF52EA43067FF4C5AE50EA41047FF46B
:100958000DAF52EA43057FF4EBAE12E710B504463B
:100968000E4B18784FF47A73B3FBF0F30C4A106807
:10097800B0FBF3F000F0A0F868B90F2C01D9012002
:100988000AE0002221464FF0FF3000F055F8034BF3
:100998005C60002000E0012010BD00BF00000020C6
:1009A8000800002008B5074A136843F010031360D5
:1009B800032000F02FF80020FFF7D0FF01F0D8FE49
:1009C800002008BD00200240034A1168034B1B7831
:1009D8000B441360704700BF68000020000000202F
:1009E800014B1868704700BF6800002038B50446FE
:1009F800FFF7F6FF0546B4F1FF3F02D0044B1B7822
:100A08001C44FFF7EDFF401BA042FAD338BD00BFDE
:100A180000000020074AD36823F4E0631B041B0C82
:100A2800000200F4E060184340F0BF6040F400307A
:100A3800D060704700ED00E030B4174BDB68C3F3BB
:100A48000223C3F10704042C28BF04241D1D062D0E
:100A580018D9033B4FF0FF3505FA04F421EA0401E5
:100A6800994005FA03F322EA0303194300280BDB34
:100A78000901C9B200F1604000F5614080F8001337
:100A880030BC70470023E5E700F00F000901C9B248
:100A9800024B1954F4E700BF00ED00E014ED00E04C
:100AA80000F01F02400901239340024A42F8203017
:100AB800704700BF00E100E00138B0F1807F0AD242
:100AC800064B5860064AF02182F8231000209860EF
:100AD80007221A6070470120704700BF10E000E04D
:100AE80000ED00E0042805D0054A136823F004034C
:100AF80013607047024A136843F004031360704799
:100B080010E000E0704708B5FFF7FCFF08BD0000E3
:100B1800F0B482B0002336E0042400E00024B4409E
:100B28003C4302355B4E46F825405B4C2568D44370
:100B380004EA05064F6817F4803F01D042EA05062B
:100B4800554D2E606D6804EA05064F6817F4003F9E
:100B580001D042EA0506504D6E60AD6804EA05060C
:100B68004F6817F4801F01D042EA05064A4DAE606F
:100B7800ED682C404E6816F4001F01D042EA0504C7
:100B8800454AD46001330A6832FA03F47ED001245E
:100B98009C402240F6D04D68022D01D0122D10D174
:100BA800DE08083650F826C003F00705AF000F2509
:100BB800BD402CEA050C0D69BD4045EA0C0540F81E
:100BC800265006685F000325BD40ED4305EA060C84
:100BD8004E6806F00306BE4046EA0C0606604E68FC
:100BE80006F1FF3CBCF1010F03D9112E01D0122EE2
:100BF80010D1866805EA060CCE68BE4046EA0C06A7
:100C08008660466826EA04044E68C6F300169E40CD
:100C180026434660C46825408C68BC402C43C460A9
:100C28004C6814F0805FADD01C4CA56945F00105F7
:100C3800A561A46904F001040194019C9D08AE1CFF
:100C4800144C54F8267003F00304A6000F24B44093
:100C580027EA0407B0F1904F3FF460AF104CA04270
:100C68000ED004F58064A0420CD004F58064A04244
:100C78000AD004F58064A0423FF44EAF05244EE745
:100C880001244CE702244AE7032448E702B0F0BCF9
:100C9800704700BF000001400004014000100240FE
:100CA80000040048002370E0042500E0002505FA50
:100CB80002F2A2424BD0013331FA03F263D001228F
:100CC8009A4012EA010CF6D005685E000324B4408D
:100CD800E44325400560DF08083750F827E003F0B3
:100CE8000705AD000F2606FA05F52EEA050540F8BA
:100CF8002750856825408560456825EA02024260DC
:100D0800C2681440C4609F08BC1C254A52F824409D
:100D180003F00302920096403440B0F1904FC5D0E2
:100D2800204DA8420DD005F58065A8420BD005F5E9
:100D38008065A84209D005F58065A842B4D005258C
:100D4800B5E70125B3E70225B1E70325AFE7144D61
:100D5800BA1C55F8224024EA060645F82260124CCF
:100D680022686FEA0C0C02EA0C02226062680CEA44
:100D780002026260A2680CEA0202A260E2680CEA5F
:100D88000202E26097E7F0BD013331FA03F206D0C0
:100D980001229A4012EA010CF6D0F0B594E77047A8
:100DA8000000014000040048000401400AB98162C3
:100DB80070478161704703689A6912F0020F01D089
:100DC80000229A6203689A6912F0010F03D19A69A6
:100DD80042F001029A61704770B4039E0568686822
:100DE800740D04F4806444F07F7444F4583444F47B
:100DF8007F7444F0030420EA0400C1F3090141EAC6
:100E08000241194331430143696070BC704770B5B2
:100E180004460D46164603689B6913F0100F17D059
:100E280023689A6912F0200F14D1B5F1FF3FF7D06B
:100E380025B1FFF7D5FD801BA842F1D9202384F8FE
:100E48004130002384F8423084F8403003201EE00B
:100E580000201CE01022DA6123682025DD6120468D
:100E6800FFF7A9FF2268536823F0FF7323F48B333D
:100E780023F4FF7323F0010353600423636484F8AD
:100E88004150002384F8423084F84030012070BD7E
:100E980070B504460D46164623689B6913F0020F89
:100EA8001CD1324629462046FFF7B1FFC0B9B5F13B
:100EB800FF3FF1D025B1FFF793FD801BA842EBD986
:100EC800636C43F020036364202384F841300023DB
:100ED80084F8423084F84030032000E0002070BDE0
:100EE8000120FCE7F8B505460F4616461C462B6858
:100EF8009B6937EA03030CBF01230023B34213D1D4
:100F0800B4F1FF3FF3D02CB1FFF76AFD069BC01A7E
:100F1800A042ECD9202385F84130002385F84230DF
:100F280085F84030032000E00020F8BD70B582B09D
:100F3800044616461D461E4B00934FF08073EAB2D6
:100F4800FFF74AFF079A06992046FFF7A1FF30B13D
:100F5800636C042B27D10123184602B070BD012D04
:100F68000FD12368F6B29E62079B0093069B00226E
:100F780080212046FFF7B6FF03460028ECD0032364
:100F8800EAE72368320A9A62079A06992046FFF729
:100F98007FFF20B1636C042B07D10123DCE72368B2
:100FA800F6B29E62E0E70323D6E70323D4E700BF47
:100FB8000020008070B582B0044616461D461D4BC1
:100FC80000930023EAB2FFF707FF079A0699204625
:100FD800FFF75EFF30B1636C042B27D1012318465D
:100FE80002B070BD012D0FD12368F6B29E62079B37
:100FF8000093069B002240212046FFF773FF03461B
:101008000028ECD00323EAE72368320A9A62079A99
:1010180006992046FFF73CFF20B1636C042B07D1EB
:101028000123DCE72368F6B29E62E0E70323D6E7F4
:101038000323D4E70020008070B505460C46164609
:101048002B689B6913F0200F19D132462146284698
:10105800FFF7DDFEA8B924B1FFF7C2FC801BA04250
:10106800EED96B6C43F020036B64202385F8413084
:10107800002385F8423085F84030032070BD0020F9
:10108800FCE70120FAE7002859D010B5044690F88B
:101098004130002B43D0242384F841302268136860
:1010A80023F0010313606368226823F070631361FF
:1010B8002268936823F400439360E368012B33D0DC
:1010C800A368226843F404439360E368022B31D099
:1010D8002268536843F0007343F400435360226866
:1010E800D36823F40043D360236962691343A16979
:1010F800226843EA0123D360E369216A22680B432B
:1011080013602268136843F00103136000206064D1
:10111800202384F84130206384F8420010BD80F811
:10112800403001F0F7F9B6E7A368226843F40043BA
:101138009360CAE723684FF400625A60C8E7012049
:101148007047A8B110B50446242380F841300268DE
:10115800136823F00103136001F02EFA0020606485
:1011680084F84100206384F8420084F8400010BDF0
:10117800012070472DE9F04782B0BDF82C7090F837
:101188004150EDB2202D40F0CB800A9C002C00F09D
:10119800CC80002F00F0CB8090F84040012C00F06C
:1011A800C880984691460D4604464FF0010A80F8DB
:1011B80040A0FFF715FC06460090192352464FF44D
:1011C80000412046FFF78EFE002840F0B48021231E
:1011D80084F84130402384F84230002363640A9A3B
:1011E80062626785636301960C9B009343464A4697
:1011F80029462046FFF79AFE60B1636C042B04D1A0
:10120800002384F8403053468BE0002384F84030B4
:10121800032386E0638D9BB2FF2B0AD9FF22228528
:10122800002300934FF0807329462046FFF7D4FD32
:1012380021E0628D92B22285002300934FF0007363
:10124800D2B229462046FFF7C7FD14E0636C042B91
:1012580073D1012365E0628D92B222850023009349
:101268004FF00073D2B229462046FFF7B5FD638DD3
:101278009BB2002B32D032460C992046FFF708FE6D
:101288000028E3D1636A5A1C626222681B78936261
:10129800638D013B9BB26385238D013B9BB2238504
:1012A800002BE4D1638D9BB2002BE0D000960C9B01
:1012B800002280212046FFF715FE00283FD1638DCC
:1012C8009BB2FF2BC7D9FF222285002300934FF042
:1012D800807329462046FFF77FFDC8E732460C9900
:1012E8002046FFF7A9FE034620B1636C042B28D1E2
:1012F800012316E022682021D1612068426822F08B
:10130800FF7222F48B3222F4FF7222F00102426053
:1013180084F84110002284F8422084F8402000E03C
:101328000223184602B0BDE8F0870123F9E701233C
:10133800F7E70223F5E70323F3E70323F1E70323A2
:10134800EFE70323EDE700002DE9F04782B0BDF891
:101358002C7090F84150EDB2202D40F0C8800A9CC6
:10136800002C00F0C980002F00F0C88090F84040A1
:10137800012C00F0C580984691460D4604464FF072
:10138800010A80F840A0FFF72BFB064600901923BE
:1013980052464FF400412046FFF7A4FD002840F0D4
:1013A800B180222384F84130402384F8423000235E
:1013B80063640A9A62626785636301960C9B009373
:1013C80043464A4629462046FFF7F4FD60B1636C60
:1013D800042B04D1002384F84030534688E00023CE
:1013E80084F84030032383E0638D9BB2FF2B0AD936
:1013F800FF222285474B00934FF0807329462046F1
:10140800FFF7EAFC1CE0628D92B22285414B009303
:101418004FF00073D2B229462046FFF7DDFC0FE0FB
:10142800628D92B22285002300934FF00073D2B2EE
:1014380029462046FFF7D0FC638D9BB2002B34D0A1
:1014480000960C9B002204212046FFF74BFD002844
:101458005AD123685A6A636A591C61621A70238DCB
:10146800013B9BB22385628D013A92B26285002BC3
:10147800E2D1638D9BB2002BDED000960C9B00223C
:1014880080212046FFF72EFD00283FD1638D9BB2B7
:10149800FF2BC5D9FF222285002300934FF08073CC
:1014A80029462046FFF798FCC6E732460C992046A5
:1014B800FFF7C2FD034620B1636C042B28D101233A
:1014C80016E022682021D1612068426822F0FF726C
:1014D80022F48B3222F4FF7222F00102426084F877
:1014E8004110002284F8422084F8402000E00223C2
:1014F800184602B0BDE8F0870123F9E70123F7E7B2
:101508000223F5E70323F3E70323F1E70323EFE7D8
:101518000323EDE70024008090F84130DBB2202B54
:1015280024D190F84030012B22D0012380F840309C
:10153800242380F841300268136823F00103136004
:101548000268136823F48053136002681368194310
:1015580011600268136843F001031360202380F8C8
:101568004130002380F84030184670470220704709
:101578000220704790F84130DBB2202B22D190F83E
:101588004030012B20D0012380F84030242380F8FC
:1015980041300268136823F001031360026813687E
:1015A80023F4706343EA012111600268136843F071
:1015B80001031360202380F84130002380F8403075
:1015C800184670470220704702207047002800F034
:1015D800F58270B582B00446036813F0010F3BD062
:1015E800B54B5B6803F00C03042B1ED0B24B5B6851
:1015F80003F00C03082B13D06368B3F5803F68D061
:10160800002B40F0928003F1804303F504331A68FD
:1016180022F480321A601A6822F480221A605DE08F
:10162800A54B5B6813F4803FE6D04FF4003393FA80
:10163800A3F3A14B19684FF4003393FAA3F3B3FA59
:1016480083F303F01F03012202FA03F30B4203D0D2
:101658006368002B00F0B482236813F0020F00F0D7
:10166800C680954B5B6813F00C0F00F09C80924B82
:101678005B6803F00C03082B00F08F802369002BB4
:1016880000F0F380012292FAA2F3B3FA83F303F194
:10169800845303F584139B001A60FFF7A1F90546EC
:1016A800022393FAA3F3844B1968022393FAA3F352
:1016B800B3FA83F303F01F03012202FA03F30B4288
:1016C80040F0C480FFF78CF9401B0228E8D90320BA
:1016D80083E2794A136843F480331360764AD36A05
:1016E80023F00F03A1680B43D3626368002B36D045
:1016F800FFF776F905464FF4003393FAA3F36E4BE0
:1017080019684FF4003393FAA3F3B3FA83F303F0A1
:101718001F03012202FA03F30B429DD1FFF760F980
:10172800401B6428E7D9032057E2B3F5A02F09D05E
:10173800614B1A6822F480321A601A6822F48022F7
:101748001A60CBE703F18043A3F53C331A6842F4EF
:1017580080221A601A6842F480321A60BEE7FFF7E6
:101768003FF905464FF4003393FAA3F3524B196837
:101778004FF4003393FAA3F3B3FA83F303F01F0390
:10178800012202FA03F30B423FF466AFFFF728F990
:10179800401B6428E6D903201FE2474B5B6813F41B
:1017A800803F7FF46BAF022393FAA3F3424B19688F
:1017B800022393FAA3F3B3FA83F303F01F0301227E
:1017C80002FA03F30B4204D02369934201D00120AB
:1017D80003E23948036823F0F8036169F82292FAB2
:1017E800A2F2B2FA82F201FA02F21343036023680A
:1017F80013F0080F00F08C80A369002B60D0012142
:1018080091FAA1F2B2FA82F22C4B13449B001960B0
:10181800FFF7E6F80546022393FAA3F293FAA3F238
:1018280093FAA3F2244A516A93FAA3F3B3FA83F31F
:1018380003F01F03012202FA03F30B4268D1FFF7FA
:10184800CFF8401B0228E6D90320C6E11A480368EE
:1018580023F0F8036169F82292FAA2F2B2FA82F24E
:1018680001FA02F213430360C1E7012393FAA3F3D9
:10187800B3FA83F303F1845303F584139B00002226
:101888001A60FFF7ADF80546022393FAA3F30A4B53
:101898001968022393FAA3F3B3FA83F303F01F033F
:1018A800012202FA03F30B42A1D0FFF799F8401B7B
:1018B8000228E9D9032090E100100240208190100D
:1018C800012292FAA2F2B2FA82F2C04B13449B00B0
:1018D80000221A60FFF784F80546022393FAA3F260
:1018E80093FAA3F293FAA3F2B94A516A93FAA3F3CB
:1018F800B3FA83F303F01F03012202FA03F30B4246
:1019080006D0FFF76DF8401B0228E6D9032064E1F2
:10191800236813F0040F00F0B380AD4BDB6913F0BC
:10192800805F20D1AA4BDA6942F08052DA61DB6924
:1019380003F080530193019B0125A64B1B6813F408
:10194800807F12D0E368012B23D073BB03F180435F
:1019580003F504331A6A22F001021A621A6A22F0A5
:1019680004021A621AE00025E7E79A4A136843F46A
:1019780080731360FFF734F80646964B1B6813F420
:10198800807FDFD1FFF72CF8801B6428F5D903206E
:1019980023E18F4A136A43F001031362E368002BC3
:1019A80041D0FFF71DF806462BE0052B09D0884BE0
:1019B8001A6A22F001021A621A6A22F004021A62F2
:1019C800ECE7834B1A6A42F004021A621A6A42F080
:1019D80001021A62E2E77E4B196A022393FAA3F323
:1019E800B3FA83F303F01F03012202FA03F3194247
:1019F80045D1FEF7F5FF801B41F28833984200F28B
:101A0800E180022393FAA3F293FAA3F3B3FA83F3E0
:101A18005B0943F00203022BDDD0022393FAA3F300
:101A28006B4B596AD9E7FEF7DBFF064615E0684BB2
:101A3800196A022393FAA3F3B3FA83F303F01F039B
:101A4800012202FA03F3194219D0FEF7C9FF801BDD
:101A580041F28833984200F2B780022393FAA3F246
:101A680093FAA3F3B3FA83F35B0943F00203022B5F
:101A7800DDD0022393FAA3F3554B596AD9E7B5BBD6
:101A8800E369002B00F0A880514A526802F00C026A
:101A9800082A00F0A480022B2FD04FF0807393FA0D
:101AA800A3F3B3FA83F303F1845303F584139B0080
:101AB80000221A60FEF794FF04464FF0007393FA71
:101AC800A3F3434B19684FF0007393FAA3F3B3FAE7
:101AD80083F303F01F03012202FA03F319426BD0C8
:101AE800FEF77EFF001B0228E7D9032075E0384A7D
:101AF800D36923F08053D361C2E74FF0807393FA20
:101B0800A3F3B3FA83F303F1845303F584139B001F
:101B180000221A60FEF764FF05464FF0007393FA3F
:101B2800A3F32B4B19684FF0007393FAA3F3B3FA9E
:101B380083F303F01F03012202FA03F3194206D0CC
:101B4800FEF74EFF401B0228E7D9032045E0204955
:101B58004B6823F47413626A206A024313434B6090
:101B68004FF0807393FAA3F3B3FA83F303F184532A
:101B780003F584139B0001221A60FEF731FF044627
:101B88004FF0007393FAA3F3114B19684FF00073E9
:101B980093FAA3F3B3FA83F303F01F03012202FAC3
:101BA80003F3194206D1FEF71BFF001B0228E7D9F1
:101BB800032012E0002010E000200EE00120704712
:101BC80001200AE0032008E0032006E020819010AD
:101BD8000010024000700040002002B070BD0120DB
:101BE800FBE700BF10B4174B5C6804F00C03082B2C
:101BF80026D104F470124FF4701393FAA3F3B3FAD6
:101C080083F322FA03F31049C85C0E4BDB6A03F036
:101C18000F030F2292FAA2F2B2FA82F2D3400B44D7
:101C28001A7C14F4803F05D1084B03FB00F05DF8E3
:101C3800044B7047064BB3FBF2F300FB03F0F6E7E7
:101C48000348F4E7001002407C2B000800093D001F
:101C580000127A00002800F0C08070B50446614B7D
:101C68001B6803F007038B420CD25E4A136823F00B
:101C780007030B431360136803F007038B4201D07B
:101C8800012070BD236813F0020F06D0564A53682E
:101C980023F0F003A068034353600D46236813F054
:101CA800010F5AD06368012B2DD0022B40D002229D
:101CB80092FAA2F24C4A1068022292FAA2F2B2FAFE
:101CC80082F202F01F02012101FA02F2104200F032
:101CD800868045494A6822F0030213434B60FEF7A9
:101CE8007FFE0646404B5B6803F00C036268B3EB6B
:101CF800820F32D0FEF774FE801B41F2883398427F
:101D0800F0D90320BDE74FF4003292FAA2F2364A26
:101D180010684FF4003292FAA2F2B2FA82F202F09C
:101D28001F02012101FA02F20242D2D10120A8E7E2
:101D38004FF0007292FAA2F22B4A10684FF000722C
:101D480092FAA2F2B2FA82F202F01F02012101FA1B
:101D580002F21042BDD1012093E7224B1B6803F029
:101D68000703AB420CD91F4A136823F007032B4320
:101D78001360136803F00703AB4201D0012080E72A
:101D8800236813F0040F06D0174A536823F4E0635E
:101D9800E1680B435360236813F0080F07D0124A19
:101DA800536823F46053216943EAC1035360FFF782
:101DB80019FF0D4B5B6803F0F003F02292FAA2F2D0
:101DC800B2FA82F2D340094AD35CD840084B186073
:101DD8000020FEF7C3FD002053E7012070470120D3
:101DE8004FE700BF00200240001002409C2B000873
:101DF80008000020014B1868704700BF0800002049
:101E0800F0B583B00446036813F4803F48D0934B81
:101E1800DB6913F0805F40F0D580904BDA6942F0BF
:101E28008052DA61DB6903F080530193019B01253D
:101E38008B4B1B6813F4807F00F0C680874B1B6AAE
:101E480013F4407322D0626802F440729A421DD0A3
:101E58008248016A21F440764FF4803393FAA3F262
:101E6800B2FA82F27F4F3A4492004FF0010CC2F866
:101E780000C093FAA3F3B3FA83F33B449B00002218
:101E88001A60066211F0010F40F0B380734A136ABA
:101E980023F4407361680B431362002D40F0D58032
:101EA800236813F0010F06D06C4A136B23F0030369
:101EB800A1680B431363236813F0020F06D0674A27
:101EC800136B23F44033E1680B431363236813F067
:101ED800040F06D0614A136B23F4402321690B4396
:101EE8001363236813F0200F06D05C4A136B23F0AA
:101EF8001003E1690B431363236813F4003F06D012
:101F0800564A536823F48003A16B0B43536023683C
:101F180013F0400F06D0514A136B23F02003216AB7
:101F28000B431363236813F0080F06D04B4A136B57
:101F380023F4401361690B431363236813F0100FF4
:101F480006D0464A136B23F44003A1690B4313637D
:101F5800236813F4007F06D0404A536823F4000333
:101F6800E16A0B435360236813F0800F06D03B4AA5
:101F7800D36A23F4F873616A0B43D362236813F4BA
:101F8800807F06D0354AD36A23F47853A16A0B437D
:101F9800D362236813F4805F06D0304A136B23F4AE
:101FA8008073216B0B431363236813F4005F53D0D2
:101FB8002A4A136B23F40073616B0B4313630020ED
:101FC80003B0F0BD002533E7254A136843F4807356
:101FD8001360FEF705FD0646214B1B6813F4807F4E
:101FE8007FF42CAFFEF7FCFC801B6428F4D9032097
:101FF800E6E7FEF7F5FC064615E0184B196A0223DA
:1020080093FAA3F3B3FA83F303F01F03012202FA4E
:1020180003F30B427FF43AAFFEF7E2FC801B41F278
:102028008833984216D8022393FAA3F293FAA3F3BB
:10203800B3FA83F35B0943F00203022BDDD00223DA
:1020480093FAA3F3054B596AD9E7D36923F0805370
:10205800D36125E70320B3E70020B1E70010024071
:1020680000700040008190100268D36843F00103BB
:10207800D3600268136843F00103136000207047BF
:102088007047704770477047704710B5044603683B
:102098001A6912F0020F11D0DA6812F0020F0DD08F
:1020A8006FF002021A610123037703689B6913F03A
:1020B800030F79D0FFF7E6FF0023237723681A6917
:1020C80012F0040F12D0DA6812F0040F0ED06FF07D
:1020D80004021A610223237723689B6913F4407F63
:1020E80068D02046FFF7CEFF0023237723681A69BC
:1020F80012F0080F12D0DA6812F0080F0ED06FF045
:1021080008021A61042323772368DB6913F0030F9D
:1021180057D02046FFF7B6FF0023237723681A69B4
:1021280012F0100F12D0DA6812F0100F0ED06FF004
:1021380010021A61082323772368DB6913F4407FB0
:1021480046D02046FFF79EFF0023237723681A69AD
:1021580012F0010F03D0DA6812F0010F3FD12368A3
:102168001A6912F0800F03D0DA6812F0800F3DD19F
:1021780023681A6912F4807F03D0DA6812F0800F9E
:102188003BD123681A6912F0400F03D0DA6812F0C5
:10219800400F39D123681A6912F0200F03D0DA688A
:1021A80012F0200F37D110BDFFF76BFF2046FFF765
:1021B8006AFF81E72046FFF764FF2046FFF763FFC9
:1021C80092E72046FFF75DFF2046FFF75CFFA3E795
:1021D8002046FFF756FF2046FFF755FFB4E76FF09C
:1021E80001021A612046FFF74BFFB8E76FF0800243
:1021F8001A61204600F0B9F8BAE76FF480721A61E4
:10220800204600F0B3F8BCE76FF040021A612046A0
:10221800FFF73AFFBEE76FF020021A61204600F090
:10222800A3F8C0E703682C4A90420ED0B0F1804F63
:102238000BD0A2F59432904207D002F5806290420A
:1022480003D002F59632904203D123F070034A6816
:102258001343214A90421AD0B0F1804F17D0A2F50B
:102268009432904213D002F5806290420FD002F56A
:10227800963290420BD002F54062904207D002F5A8
:102288008062904203D002F58062904203D123F429
:102298004073CA68134323F080034A6913430360F9
:1022A8008B68C3620B6883620B4B98420FD003F5AF
:1022B800006398420BD003F54063984207D003F5BA
:1022C8008063984203D003F58063984201D10B697B
:1022D8000363012343617047002C0140A8B110B586
:1022E800044690F83D305BB1022384F83D30211D4F
:1022F8002068FFF797FF012384F83D30002010BDC8
:1023080080F83C3000F0FCFAEEE70120704700004E
:1023180090F83C30012B22D030B4012380F83C30B7
:102328000268536895680F4CA24203D004F5006414
:10233800A24203D123F470034C68234323F07003B3
:102348000C68234325F0800489682143536003689F
:102358009960002380F83C30184630BC7047022052
:10236800704700BF002C014070477047704700005D
:10237800F0B58BB0304B5A6942F400225A615A6961
:1023880002F400220092009A5A6942F480025A61CB
:102398005A6902F480020192019A5A6942F40032A1
:1023A8005A615A6902F400320292029A5A6942F456
:1023B80080125A615A6902F480120392039A5A6988
:1023C80042F480225A615B6903F480230493049BDE
:1023D8001A4F00224FF460413846FEF7E7FC00220E
:1023E80040214FF09040FEF7E1FC154E00220421F9
:1023F8003046FEF7DBFC4FF4604305930125069554
:1024080000240794089405A93846FEF781FB402369
:10241800059306950794089405A94FF09040FEF798
:1024280077FB0423059306950794089405A930467D
:10243800FEF76EFB0BB0F0BD00100240000800482C
:10244800000C004808B51548154B0360154B436050
:10245800002383600122C260036143618361C36119
:102468000362FEF710FE50B900210C48FFF754F83C
:1024780050B900210948FFF77DF850B908BD43213C
:10248800094800F014F9EFE74A21074800F00FF96E
:10249800EFE75121044800F00AF9EFE76C0000204B
:1024A800005400400E090020B42B000808B5154858
:1024B800154B0360154B4360002383600122C26003
:1024C800036143618361C3610362FEF7DCFD50B9B8
:1024D80000210C48FFF720F850B900210948FFF700
:1024E80049F850B908BD6421094800F0E0F8EFE761
:1024F8006B21074800F0DBF8EFE77221044800F091
:10250800D6F8EFE7B8000020005800400E09002078
:10251800B42B0008F0B589B00368224A934204D06E
:10252800214A934226D009B0F0BD4FF400430393EB
:102538001227049701260596032506950424079477
:1025480003A94FF09040FEF7E3FA80230393049722
:1025580005960695079403A91448FEF7D9FA144B73
:10256800DA6942F40012DA61DB6903F400130193BB
:10257800019BD8E7032303931222049201220592B8
:1025880006930423079303A90A48FEF7C1FA084BE8
:10259800DA6942F48002DA61DB6903F480030293AA
:1025A800029BC0E700540040005800400004004867
:1025B800001002400014004808B50368114A93420D
:1025C80003D0114A934211D008BD02F5DE32D36917
:1025D80023F40013D3614FF400414FF09040FEF70D
:1025E80061FB80210948FEF75DFBEDE702F5DC326F
:1025F800D36923F48003D36103210548FEF752FB16
:10260800E2E700BF005400400058004000040048C2
:10261800001400488160642141600270704790F99D
:102628000030002B0DDB10B504468068FEF789FDED
:102638002378A2685B009360A068FEF724FD002061
:1026480010BD0120704770B584B09DF8246016F065
:10265800800F0FD11D46044680686368029301927B
:102668000091BDF820302A467100FEF76DFE10B1CA
:10267800012000E0012004B070BD70B584B09DF861
:10268800246016F0800F0FD11D46044680686368E9
:10269800029301920091BDF820302A467100FEF79E
:1026A80069FD10B1012000E0012004B070BDFEE713
:1026B80000B59FB002231493012218921022199298
:1026C8001B9300231C934FF460131D9314A8FEF76B
:1026D8007DFF50BB0F230F9302211091002311930C
:1026E8004FF48062129213930FA8FFF7B3FA00BB5E
:1026F800602300930023079308936846FFF780FB45
:10270800D8B9FFF777FB0F4BA3FB00308009FEF722
:10271800D3F90420FEF7E6F9002211464FF0FF3006
:10272800FEF78AF91FB05DF804FB8C210648FFF715
:10273800BEFF9A210448FFF7BAFFA2210248FFF71B
:10274800B6FF00BFD34D6210C42B000808B5FEF7D2
:1027580029F9FFF7ADFFFFF70BFEFFF773FEFFF751
:10276800A5FE00F0A1F800F0FFF800F037F9FCE74B
:1027780000B583B0214B9A6942F001029A619A69C7
:1027880002F001020092009ADA6942F08052DA619E
:10279800DB6903F080530193019B0320FEF73AF9AC
:1027A800002211466FF00B00FEF746F90022114691
:1027B8006FF00A00FEF740F9002211466FF0090099
:1027C800FEF73AF9002211466FF00400FEF734F9DB
:1027D800002211466FF00300FEF72EF90022114681
:1027E8006FF00100FEF728F9002211464FF0FF3084
:1027F800FEF722F903B05DF804FB00BF00100240A9
:102808007047FEE7FEE7FEE7FEE770477047704750
:1028180008B5FEF7D9F8FEF776F908BD08B500F057
:1028280017F901224FF400410348FEF7BFFA0348A5
:10283800FFF72BFC08BD00BF00080048040100207A
:102848001549D1F8883043F47003C1F88830134B28
:102858001A6842F001021A605868114A02405A6028
:102868001A6822F0847222F480321A601A6822F4FC
:1028780080221A605A6822F4FE025A60DA6A22F04C
:102888000F02DA62186B074A02401A6300229A6044
:102898004FF000638B60704700ED00E000100240CD
:1028A8000CC07FF8CCFC00FF00B585B01148124B76
:1028B80003600F2343600023836040F69F72C26069
:1028C8008361FFF70BFD50B900230193039301A91E
:1028D8000848FFF71DFD38B905B05DF804FB3D2138
:1028E8000648FFF7E4FEEFE744210448FFF7DFFE60
:1028F800F2E700BF0401002000100040D42B0008BC
:1029080002680E4B9A4200D0704700B583B003F5B9
:102918000033DA6942F01002DA61DB6903F0100370
:102928000193019B002211463620FEF785F83620D8
:10293800FEF7B6F803B05DF804FB00BF00100040D6
:10294800012800D0704708B54FF6FF73994200D0B0
:1029580008BD012202490348FFF75CFEF8E700BF03
:10296800B80000203000002000B585B01848FFF7F7
:1029780056FE00238DF80F30154868230193012275
:102988000092752300F10C01FFF75DFE0028F3D1DA
:10299800012204210F48FEF709FA68230193012256
:1029A80000926B230DF10F010948FFF766FE00281E
:1029B800F3D14FF47A70FEF719F800220421054884
:1029C800FEF7F4F90448FFF74FFB05B05DF804FB88
:1029D80030000020000C00480401002000B583B03E
:1029E800184868230193012300934323062200F12A
:1029F8001001FFF728FEF0B901224FF48041124878
:102A0800FEF7D4F90F4B93F9101093F9112002EA4D
:102A180001221A8393F9121093F9132002EA012272
:102A28005A8393F9141093F9152002EA01229A8324
:102A380003B05DF804FB00224FF480410248FEF722
:102A4800B5F9DFE73000002000080048000000006A
:102A580038B50024022C19D8134D05EB440393F91B
:102A680010000002FDF7FEFC0DA3D3E90023FDF7DB
:102A780063FD05EBC40502460B46D5E90801FDF7E1
:102A8800A5FBC5E908010134E4B2E3E701224FF4EC
:102A980000510648FEF78AF938BD00BFAFF3008041
:102AA800FCA9F1D24D62503F3000002000080048D8
:102AB80008B54FF6FF710120FFF742FF08BD00007F
:102AC800DFF834D0002103E00C4B5B58435004314D
:102AD8000B480C4B42189A42F6D30B4A02E00023EB
:102AE80042F8043B094B9A42F9D3FFF7A9FE00F0DC
:102AF80011F8FFF72BFEFEE700A00020F02B0008DE
:102B0800000000200C0000201000002044010020DC
:102B1800FEE7000070B50D4E0D4CA41BA410002557
:102B2800A54209D10B4E0C4C00F018F8A41BA410B8
:102B38000025A54205D170BD56F8253098470135C6
:102B4800EEE756F8253098470135F2E7E42B000800
:102B5800E42B0008E42B0008EC2B0008F8B500BFB4
:102B6800F8BC08BC9E467047F8B500BFF8BC08BC66
:042B78009E467047BE
:102B7C0002030405060708090A0B0C0D0E0F1010B2
:102B8C000102030405060708090A0B0C0D0E0F10B1
:102B9C000000000000000000010203040607080901
:102BAC0000000000010203042E2E2F5372632F69C4
:102BBC0032632E63000000002E2E2F5372632F6D94
:102BCC0061696E2E630000002E2E2F5372632F74DA
:082BDC00696D2E63000000008A
:082BE400AD010008B92A000848
:042BEC008901000853
:0C2BF000010000001000000000127A003C
:0400000508002AC9FC
:00000001FF
